:100000000C94C7030C94D9030C94D9030C94732952
:100010000C9429320C94D9030C94D9030C94D90371
:100020000C94D9030C94D9030C94D9030C94661640
:100030000C94D9030C94D9030C94D9030C94D903D0
:100040000C9473180C94D9030C9400140C94C213E0
:100050000C94D9030C94D9030C94D9030C94D903B0
:100060000C94D9030C94D903084AD73B3BCE016EBC
:1000700084BCBFFDC12F3D6C74319ABD56833DDAFF
:100080003D00C77F11BED9E4BB4C3E916BAAAABE0E
:10009000000000803F05A84CCDB2D44EB93836A937
:1000A000020C50B9918688083CA6AAAA2ABE000074
:1000B00000803F003E0D0A002C4C696D3A002C5226
:1000C000583A002C4275663A002C002C57506F733A
:1000D0003A002C002C4D506F733A003C446F6F7205
:1000E000003C436865636B003C416C61726D003C91
:1000F000486F6D65003C486F6C64003C52756E0043
:100100003C49646C65005D0D0A005B302E396A2E37
:1001100032303136303732363A000D0A003D002495
:100120004E005D0D0A0020530020460020540020A0
:100130004D3800204D3900204D3500204D34002031
:100140004D3300204D3200204D3100204D30002035
:1001500047393400204739330020473931002047E0
:1001600039300020473230002047323100204731FB
:1001700039002047313800204731370020470047F9
:1001800033382E00473830004733004732004731BC
:10019000004730005B005D0D0A005B544C4F3A0095
:1001A0005D0D0A002C005B4739323A005D0D0A00F4
:1001B0002C003A003330003238005B47005D0D0AF6
:1001C000003A002C005B5052423A00290D0A0020F0
:1001D0006D61782074726176656C2C206D6D0020E5
:1001E000616363656C2C206D6D2F7365635E3200F7
:1001F000206D617820726174652C206D6D2F6D69A2
:100200006E002C20737465702F6D6D007A0079007C
:1002100078002028003D0024002028686F6D696E5A
:10022000672070756C6C2D6F66662C206D6D290DC6
:100230000A002028686F6D696E67206465626F75BB
:100240006E63652C206D736563290D0A2432373D7A
:10025000002028686F6D696E67207365656B2C20C0
:100260006D6D2F6D696E290D0A2432363D002028F0
:10027000686F6D696E6720666565642C206D6D2FF3
:100280006D696E290D0A2432353D00290D0A24328C
:10029000343D002028686F6D696E672064697220A4
:1002A000696E76657274206D61736B3A0020286800
:1002B0006F6D696E67206379636C652C20626F6F68
:1002C0006C290D0A2432333D0020286861726420B5
:1002D0006C696D6974732C20626F6F6C290D0A2430
:1002E00032323D002028736F6674206C696D69742A
:1002F000732C20626F6F6C290D0A2432313D00206F
:10030000287265706F727420696E636865732C2043
:10031000626F6F6C290D0A2432303D002028617213
:100320006320746F6C6572616E63652C206D6D293E
:100330000D0A2431333D0020286A756E6374696F9D
:100340006E20646576696174696F6E2C206D6D290D
:100350000D0A2431323D00290D0A2431313D00209F
:1003600028737461747573207265706F7274206D78
:1003700061736B3A00202870726F62652070696E3D
:1003800020696E766572742C20626F6F6C290D0A7D
:100390002431303D0020286C696D69742070696ECD
:1003A0007320696E766572742C20626F6F6C290DF4
:1003B0000A24363D0020287374657020656E6162E2
:1003C0006C6520696E766572742C20626F6F6C2983
:1003D0000D0A24353D00290D0A24343D00202864EF
:1003E000697220706F727420696E76657274206D08
:1003F00061736B3A00290D0A24333D002028737481
:10040000657020706F727420696E76657274206DED
:1004100061736B3A002028737465702069646C65A1
:100420002064656C61792C206D736563290D0A2445
:10043000323D002028737465702070756C73652CD4
:100440002075736563290D0A24313D0024303D0079
:100450002424202876696577204772626C207365B2
:100460007474696E6773290D0A24232028766965E0
:1004700077202320706172616D6574657273290D38
:100480000A24472028766965772070617273657247
:10049000207374617465290D0A24492028766965E2
:1004A00077206275696C6420696E666F290D0A2475
:1004B0004E20287669657720737461727475702098
:1004C000626C6F636B73290D0A24783D76616C75DD
:1004D00065202873617665204772626C20736574AD
:1004E00074696E67290D0A244E783D6C696E65202B
:1004F0002873617665207374617274757020626C04
:100500006F636B290D0A24432028636865636B20A1
:1005100067636F6465206D6F6465290D0A24582038
:10052000286B696C6C20616C61726D206C6F636B01
:10053000290D0A2448202872756E20686F6D696E37
:1005400067206379636C65290D0A7E2028637963CF
:100550006C65207374617274290D0A212028666508
:10056000656420686F6C64290D0A3F2028637572EA
:1005700072656E7420737461747573290D0A6374E7
:10058000726C2D7820287265736574204772626CD6
:10059000290D0A000D0A4772626C20302E396A203C
:1005A0005B27242720666F722068656C705D0D0ADA
:1005B000005D0D0A00526573746F72696E67206486
:1005C000656661756C74730050676D20456E6400DC
:1005D000436865636B20446F6F72004469736162A6
:1005E0006C656400456E61626C656400436175749E
:1005F000696F6E3A20556E6C6F636B6564002724DB
:1006000048277C2724582720746F20756E6C6F63F1
:100610006B00526573657420746F20636F6E74692C
:100620006E7565005B000D0A00486F6D696E67208E
:100630006661696C0050726F6265206661696C006A
:1006400041626F727420647572696E6720637963AA
:100650006C6500536F6674206C696D697400486145
:100660007264206C696D697400414C41524D3A20AE
:10067000000D0A00496E76616C69642067636F64DF
:10068000652049443A00556E646566696E6564206C
:1006900066656564207261746500556E737570706F
:1006A0006F7274656420636F6D6D616E64004D6F71
:1006B00064616C2067726F75702076696F6C61740D
:1006C000696F6E004C696E65206F766572666C6F3F
:1006D0007700486F6D696E67206E6F7420656E617C
:1006E000626C656400416C61726D206C6F636B00BD
:1006F0004E6F742069646C6500454550524F4D2023
:1007000072656164206661696C2E205573696E673D
:100710002064656661756C74730056616C75652044
:100720003C203320757365630053657474696E678C
:100730002064697361626C65640056616C75652044
:100740003C203000496E76616C696420737461747A
:10075000656D656E7400426164206E756D626572D0
:1007600020666F726D6174004578706563746564AE
:1007700020636F6D6D616E64206C657474657200CA
:100780006572726F723A20006F6B0D0A00001124BF
:100790001FBECFEFD8E0DEBFCDBF26E0A0E0B1E0C6
:1007A00001C01D92AC3CB207E1F70E94DB030C9440
:1007B000F0380C9400000E9490130E9414230E94B1
:1007C000EF180E941832E5E2F5E08EE1DF011D929C
:1007D0008A95E9F781E08093250578949091BB068E
:1007E00094FD809326050E945F140E9499080E9440
:1007F000EF120E946F130E942D290E94192D0E9452
:1008000087240E94C3180E9404280E94AB081092FB
:100810002505109243051092450510922705109268
:1008200028050E948E15DFCFCF92DF92EF92FF92C4
:100830001F93CF93DF93EC016A017B01122F80910C
:10084000BB0685FF03C0CE010E947A2B809126054E
:100850008230D1F00E94641480912505811114C06A
:100860000E94D624882319F00E948515F3CF212FEA
:10087000B701A601CE01DF91CF911F91FF90EF90BC
:10088000DF90CF900C94DE24DF91CF911F91FF90E9
:10089000EF90DF90CF9008952F923F924F925F920A
:1008A0006F927F928F929F92AF92BF92CF92DF9280
:1008B000EF92FF920F931F93CF93DF93CDB7DEB7E5
:1008C000E3970FB6F894DEBF0FBECDBF988B8F872E
:1008D0001B013A0109871A872B873C87C98ADA8A64
:1008E000EB8AFC8AAF8A29960FAD29972A962FADFD
:1008F0002A972D872B963FAD2B973D8BA4E08A9EA0
:10090000C00111249A838983EF85F889E80FF91FC4
:10091000F98FE88F840F951F9B8F8A8FDC018D9054
:100920009D90AD90BC902081318142815381C50161
:10093000B4010E94423468A379A38AA39BA3B4E0C4
:100940000B9F80011124EF85F889E00FF11FFD8FC7
:10095000EC8F9301200F311F3F8F2E8FD901CD9047
:10096000DD90ED90FC902081318142815381C7015F
:10097000B6010E9442346CA37DA38EA39FA32401E1
:10098000350177FA709477F87094D701C601B058A2
:100990008D839E83AF83B887E981FA81E20DF31DD1
:1009A00028A139A14AA15BA16081718182819381D3
:1009B0000E9441346B017C01F101E00FF11F2CA179
:1009C0003DA14EA15FA160817181828193810E94CE
:1009D00041344B015C01A7019601C301B2010E94A1
:1009E000993769837A838B839C83A50194016D81F8
:1009F0007E818F8198850E9499379B01AC01698126
:100A00007A818B819C810E94423469837A838B83B3
:100A10009C83A5019401C301B2010E9499374B0147
:100A20005C01A70196016D817E818F8198850E946E
:100A300099379B01AC01C501B4010E944134298161
:100A40003A814B815C810E94C1346B017C019D899C
:100A5000992309F4F1C02DEB37E346E055EBC701CC
:100A6000B6010E94593787FD0AC02BED3FE049ECE3
:100A700050E4C701B6010E9441346B017C018090B3
:100A8000B7069090B806A090B906B090BA0629852E
:100A90003A854B855C85CA01B9010E944234A501A3
:100AA00094010E944134A50194010E9499370E944B
:100AB00038384B015C0120E030E040E05FE3C701E3
:100AC000B6010E94993729853A854B855C850E943D
:100AD00099379F77A50194010E9441350E942636DF
:100AE0000E94BA357E8B6D8BDB01AB2B09F484C081
:100AF00090E080E00E94E9354B015C01BF89BB2397
:100B000061F0AC019B0169897A898B899C890E947B
:100B10009937698B7A8B8B8B9C8BA5019401C701CC
:100B2000B6010E94413569877A878B879C87FD854E
:100B3000E4E0FE9FC00111242F853889280F391F5A
:100B40003E872D87820D931DD9012D913D914D91A9
:100B50005C91FC0160817181828193810E944134AA
:100B6000A50194010E94413568AB79AB8AAB9BAB80
:100B700029853A854B855C85CA01B9010E94993760
:100B80009B01AC0160E070E080E090E40E944134A1
:100B90006B017C012BEA3AEA4AE25EE369857A85D9
:100BA0008B859C850E9499374B015C0120E030E0E9
:100BB00040E850E4C701B6010E9442349B01AC01F9
:100BC000C501B4010E94993768A779A78AA79BA796
:100BD00020E030E040E05FE3C701B6010E949937B2
:100BE0006CA77DA78EA79FA7198201E010E0ED8971
:100BF000FE890E171F07A1F52F8949895A896B892C
:100C00007C89C101E3960FB6F894DEBF0FBECDBF5D
:100C1000DF91CF911F910F91FF90EF90DF90CF90D8
:100C2000BF90AF909F908F907F906F905F904F900C
:100C30003F902F900C9414042DEB37E346E055E3DE
:100C4000C701B6010E94373518160CF418CF2BEDEA
:100C50003FE049EC50E4C701B6010E9442340DCF99
:100C6000F981FC3008F083C028A539A54AA55BA509
:100C7000C301B2010E9499376B017C012CA53DA5EF
:100C80004EA55FA56D817E818F8198850E949937E1
:100C90009B01AC01C701B6010E9442346B017C018B
:100CA0002CA53DA54EA55FA5C301B2010E949937B1
:100CB0004B015C0128A539A54AA55BA56D817E8104
:100CC0008F8198850E9499379B01AC01C501B401C1
:100CD0000E9441342B013C0129812F5F2983C601E9
:100CE000D7018D839E83AF83B88728A139A14AA1FC
:100CF0005BA1C301B2010E944234E88DF98D60838B
:100D00007183828393832CA13DA14EA15FA16D814C
:100D10007E818F8198850E944234AC8DBD8D6D930C
:100D20007D938D939C93139728A939A94AA95BA910
:100D3000ED85FE8560817181828193810E944234BC
:100D4000AD85BE856D937D938D939C9313972F896D
:100D500049895A896B897C898F8598890E941404F6
:100D600080912505811169C00F5F1F4F40CFB801E9
:100D700090E080E00E94E93529853A854B855C85C5
:100D80000E9499376B017C010E943C3569837A830C
:100D90008B839C83C701B6010E942A384B015C01FA
:100DA000AA8DBB8DCD90DD90ED90FC90F7FAF0947C
:100DB000F7F8F094AE8DBF8D8D919D910D90BC9103
:100DC000A02D8D839E83AF83B88729813A814B8183
:100DD0005C81C701B6010E9499372B013C01A50136
:100DE00094016D817E818F8198850E9499379B0146
:100DF000AC01C301B2010E9442342B013C01A501A8
:100E00009401C701B6010E9499376B017C012981C9
:100E10003A814B815C816D817E818F8198850E94B2
:100E200099379B01AC01C701B6010E9441346D8323
:100E30007E838F839887198258CFE3960FB6F894F4
:100E4000DEBF0FBECDBFDF91CF911F910F91FF90FD
:100E5000EF90DF90CF90BF90AF909F908F907F905A
:100E60006F905F904F903F902F9008958F929F9238
:100E7000AF92BF92CF92DF92EF92FF92CF93DF9328
:100E800020912605223099F16B017C0120E030E0B1
:100E900040EA51E40E9499370E9426360E94BA35F2
:100EA0004B01EB010E94091620E030E04AE754E4D0
:100EB000C701B6010E9499376B017C0182E3889DCE
:100EC000B001899D700D112490E080E00E94E93509
:100ED0009B01AC01C701B6010E9441340E94263635
:100EE0000E94BA35CB010E94F228209759F4DF9175
:100EF000CF91FF90EF90DF90CF90BF90AF909F90F9
:100F00008F9008950E946414219780912505811186
:100F1000EECF2FEF80E792E0215080409040E1F744
:100F200000C00000E2CF0E94222984E00E94A7298D
:100F30000E94641480912505811104C00E94AB08B1
:100F40000C942D2908958F929F92AF92BF92EF92A9
:100F50000F931F93CF93DF9330912605323009F41E
:100F600072C0122F4A015B01EC010E940916109217
:100F70004105802F0E941C2D0E942E2D882351F0A8
:100F80009FB7F894809145058061809345059FBF88
:100F90000E94641480912505811155C0212FB5014F
:100FA000A401CE010E94140481E0809344059FB700
:100FB000F894809143058260809343059FBF0E940F
:100FC00064148091250581113EC080912605811110
:100FD000F6CF80914405813091F5EE2039F18CE017
:100FE000E9E2F5E0A5E3B5E001900D928A95E1F71D
:100FF000109244050E94641480912505811123C03C
:101000000E94C3180E9487240E94042869E275E0A8
:10101000CE010E942634DF91CF911F910F91EF9066
:10102000BF90AF909F908F900C94792F9FB7F894BA
:10103000809145058061809345059FBFD9CF81E0B0
:1010400080934105D5CFDF91CF911F910F91EF9004
:10105000BF90AF909F908F9008958091430584FD3D
:1010600026C09FB7F8948091430580618093430523
:101070009FBF0E94E9120E946D1380912605982F50
:101080009C7021F490912705913089F49FB78430AA
:1010900049F4F894809145058062809345059FBF8F
:1010A0000C943B16F894809145058860F6CF08951E
:1010B000CF932091B2053091B3054091B405509182
:1010C000B50560915D0570915E0580915F05909119
:1010D00060050E943735811128C02091B6053091F6
:1010E000B7054091B8055091B905609161057091BF
:1010F000620580916305909164050E9437358111E6
:1011000014C0C1E02091BA053091BB054091BC05E7
:101110005091BD05609165057091660580916705E8
:10112000909168050E9437358111C0E08C2FCF91D6
:101130000895E6E4F5E08FE3DF011D928A95E9F773
:1011400069E675E080E00E94C421811103C087E058
:101150000C94AB2D089569E275E08DE595E00C9453
:1011600026342F923F924F925F926F927F928F928E
:101170009F92AF92BF92CF92DF92EF92FF920F9326
:101180001F93CF93DF93CDB7DEB7AE970FB6F8942A
:10119000DEBF0FBECDBF3C01E5E8F5E089E3DF012E
:1011A0001D928A95E9F78AE0E6E4F5E0A6E8B5E065
:1011B00001900D928A95E1F71D8E312C212CB12CD6
:1011C000A12C1FA21F8E1E8E44244394512C96E006
:1011D000892E22E0922E8D8DF301E80FF11D008102
:1011E000011127C0BF8DBB2329F0EE8DE11102C094
:1011F000F2E0FE8F25FE0FC08091A1059091A2051F
:10120000A091A305B091A40580389649A849B105DD
:1012100014F00C946A1280918705813009F08BC21A
:101220003E8D323009F0A7C220FCA5C286E10C94A5
:10123000AF129FEB900F9A3110F00C9462128F5FF7
:101240008D8FAE01475E5F4FBE01635E7F4FC3016E
:101250000E943928882311F40C946412C98CDA8C0A
:10126000EB8CFC8CC701B6010E947C380E94BA3519
:10127000162F70E090E080E00E94EB359B01AC01FE
:10128000C701B6010E94413420E030E048EC52E44E
:101290000E9499370E9406380E94BA35073421F11E
:1012A0000D3409F45EC1EAEBE00FE53108F02CC023
:1012B0000E2E000CFF0BE15AF64F0C94D038F00ABA
:1012C000840984091B0B280B350B420B8409460B40
:1012D0008409540B84095E0B680B990B84098409FB
:1012E0008409720B7F0B8C0B183209F435C1A0F501
:1012F000143168F4113108F0F0C0143009F471C0F1
:10130000C8F01A3009F460C084E10C94AF121C31AB
:1013100009F45AC050F41631B8F7143109F007C176
:1013200081E08093880516E060C01E3109F44CC04E
:10133000163251F73E8D311151C0123009F4A3C05D
:1013400008F081C0112309F493C0113009F496C04C
:1013500011E032E03E8F49C01D3309F4F7C0D8F4E4
:10136000153309F467C078F41B3211F0113361F6BC
:10137000EE8DE11133C0113309F0DCC010928B0502
:1013800018E0F3E072C01C3308F0BECF1653109380
:101390008C0519E02AC01C3550F41A3508F0ACC091
:1013A000103509F0B1CFB8E0B093860570C01C3598
:1013B00059F01F3508F0A8CF1D3509F0B5C081E000
:1013C0008093870515E011C06115710511F00C942B
:1013D0007012BE8DBB2311F40C94861288E10C941C
:1013E000AF1281E08093850510E0672B11F40C9417
:1013F000A21287E10C94AF12E1E0EE8F9092850586
:10140000F3CF23E0209385050C94A11281E08E8F09
:101410006115710541F06A30710509F075CF809250
:1014200085050C94A11295E0909385050C94A1126A
:10143000A1E0AE8FB7E0B0938505D6CFF8E0F0938A
:1014400085050C94A112133021F1163209F080CFDA
:101450006E31710599F118F56431710509F054CFB9
:10146000E4E0E093860511E0F2E0FE8F0C94A21216
:101470001092860511E082E08E8FB7CF109386051B
:1014800092E09E8FB2CF10938605A2E0AE8F11E05E
:10149000ACCF1093860511E0B2E0BE8FA6CF6832C4
:1014A0007105A1F06233710509F02ECF97E090939A
:1014B000860511E0A2E0AE8F0C94A21225E02093E5
:1014C000860511E032E03E8F0C94A21280928605D0
:1014D00011E082E08E8F0C94A212123131F01331A0
:1014E00041F010928A0512E080CF81E080938A0556
:1014F000FACF90928A05F7CF6115710559F41A3524
:1015000029F41092890513E00C94A21281E08093D3
:101510008905F9CF6A30710509F0F6CE1A3509F45C
:10152000F3CE14E00C94A212109287054BCF1092C8
:101530008805F9CE6A30710509F0E6CE81E0809326
:101540008B0518E023E02E8F0C94A212672B09F074
:10155000DBCE1AE00C94A21217E047CF10E081E036
:10156000B9CF672B09F045CF163090F41330D8F07F
:10157000143021F1153029F181E080938F058CE042
:10158000D20102C0AA0FBB1F8A95E2F7CD01E0C7C6
:10159000183008F4B9CE1A30B8F01E3109F0B4CEC4
:1015A00090928D0509C01230D9F31E31C9F3111183
:1015B00003C081E080938D058BE0E2CF90928F0590
:1015C000DECF10928F05DBCF193021F090928E057F
:1015D0008DE0D6CF10928E05FBCFA82AB92AFBCD7D
:1015E000C0929005D0929105E0929205F0929305F9
:1015F00080E08201082E02C0000F111F0A94E2F75A
:10160000980122213321232B09F060C7A1E6B3E022
:1016100002C0B595A7958A95E2F7A0FF09C020E022
:1016200030E0A901C701B6010E94373587FD50C7D8
:10163000202A312AD0CDC0929405D0929505E0920F
:101640009605F0929705BFA1B160BFA381E0D1CF0D
:10165000C0929805D0929905E0929A05F0929B0568
:10166000EFA1E260EFA382E0C4CFC0929C05D092CC
:101670009D05E0929E05F0929F05FFA1F460FFA3F7
:1016800083E0B7CF1093A00584E0B3CFC701B601C4
:101690000E94B3356093A1057093A2058093A305C2
:1016A0009093A40585E0A5CFC092A505D092A6058C
:1016B000E092A705F092A80586E09BCFC092A9050D
:1016C000D092AA05E092AB05F092AC0587E091CFED
:1016D000C092AD05D092AE05E092AF05F092B00594
:1016E00088E087CFC092B205D092B305E092B405EE
:1016F000F092B5052F8D21602F8F8AE07ACFC092AE
:10170000B605D092B705E092B805F092B9053F8DC5
:1017100032603F8F8BE06DCFC092BA05D092BB058F
:10172000E092BC05F092BD058F8D84608F8F8CE0B8
:1017300060CF89E05ECF8091470581111CC020FEFB
:1017400034C0809188058130B1F423E333E34BEC5E
:1017500051E460919005709191058091920590916E
:1017600093050E949937609390057093910580933B
:1017700092059093930530FC10C080915005909194
:101780005105A0915205B09153058093AD059093FA
:10179000AE05A093AF05B093B0058091850581306B
:1017A000B9F426FC13C08CE1DAC6809154059091FF
:1017B0005505A0915605B0915705809390059093DB
:1017C0009105A0939205B0939305D5CFE89426F8A0
:1017D00080918A05882349F0813009F4A7C01EA6AC
:1017E000A2E0A9A7B1E0B8A705C082E08EA791E06A
:1017F00099A718A680918805813061F505E8E02E4B
:1018000005E0F02E10E000E02F8DC22ED12CC60195
:10181000002E02C0959587950A94E2F780FF12C0CA
:1018200023E333E34BEC51E4D7019D966D917D9119
:101830008D919C91D0970E949937F70165A776A763
:1018400087A790AB0F5F1F4FF4E0EF0EF11C033042
:101850001105E9F62E8D233049F480918B058130F6
:1018600029F43F8D85E2343009F079C68CE0E9E651
:10187000F5E0DE011D9601900D928A95E1F7B1FC2D
:101880005BC010918505123009F46AC0183009F464
:101890000AC18E8D833009F4BEC19F8D992309F44E
:1018A0008EC6009189058091810590918205A09155
:1018B0008305B09184058BA39CA3ADA3BEA3E6E4EE
:1018C000AE2EE5E0BE2EF5E8CF2EF5E0DF2EF12CB2
:1018D000E12C9F8D892E912CC4010E2C02C0959570
:1018E00087950A94E2F780FD46C1F5018789908DBE
:1018F000A18DB28DF60185A796A7A7A7B0ABFFEF84
:10190000EF1AFF0A24E0A20EB11C34E0C30ED11C72
:1019100083E0E816F10401F7153009F490C117309F
:1019200009F496C1133009F019C180C1E1E0EEA7B6
:1019300019A6F2E0F8A75ECF80918C05873010F0F1
:101940008DE10DC690914C05891709F49ACFBE011F
:10195000635F7F4F0E94C421811193CF87E0FFC551
:101960008F8D811102C08AE1FAC5C1018075992766
:10197000892B09F418CF6091A5057091A605809177
:10198000A7059091A8050E947C380E94BA3567305F
:10199000B8F68091A005843129F0823009F0B4CCEA
:1019A00027FCB2CC662309F472C061506BA3DE0140
:1019B00011966D01BD018BA10E94C421882371F293
:1019C000B091A005BAA78090810590908205A09063
:1019D0008305B090840510E000E0F12CE12CFF8D30
:1019E000EF2FF0E0FDA7ECA78CA59DA50E2C02C063
:1019F000959587950A94E2F780FF2EC0F801EB5782
:101A0000FA4F45A456A467A470A82AA5243109F06A
:101A100042C0F801EA5BFA4F27A530A941A952A9B3
:101A20006789708D818D928D0E944134A30192014E
:101A30000E944134F601E00FF11F608371838283BD
:101A4000938332E0E31208C0A50194010E9441345F
:101A500069877A878B879C878FEFE81AF80A0C5F73
:101A60001F4F93E0E916F10409F0BECFAFEA2A2236
:101A700010918605183009F0F2C0BF8DBB2309F420
:101A8000DCC3EE8DE13009F409C18FE168C59091A6
:101A90008C059BA38CCFF601E00FF11F4082518291
:101AA00062827382D9CFBF8DBB2309F45CCF409093
:101AB0008105509082056090830570908405A6E4AE
:101AC000CA2EA5E0DA2E15E8E12E15E0F12E5E0112
:101AD000EDE0AE0EB11C10E000E08B2E912CC401A5
:101AE000002E02C0959587950A94E2F780FF38C0D2
:101AF000D5012D913D914D915C91F6016789708DD5
:101B0000818D928D0E944134D7019D962D913D91FA
:101B10004D915C91D0970E944134F70165A776A75B
:101B200087A790AB023061F4A30192010E94413477
:101B30006093BA057093BB058093BC059093BD0577
:101B40000F5F1F4FF4E0CF0ED11C24E0E20EF11C1A
:101B500034E0A30EB11C0330110509F61BA288CF97
:101B6000F60187A590A9A1A9B2A9F70185A796A713
:101B7000A7A7B0ABE5CF173009F4C1CED6019D962B
:101B80004D905D906D907C90D097011133C0F7011E
:101B9000EE0FFF1FEE0FFF1F2DE030E02C0F3D1F5B
:101BA000E20FF31FD5019F962D913D914D915C91D0
:101BB000D29760817181828193810E944234A30116
:101BC00092010E944234F60165A776A787A790ABE1
:101BD000F2E0EF1294CE2BA13CA14DA15EA10E9498
:101BE00042346093BA057093BB058093BC05909313
:101BF000BD0585CEA3019201D50157966D917D91CA
:101C00008D919C915A970E944234F60165A776A760
:101C100087A790AB74CE153091F01730C9F0133010
:101C200009F09CCF9F8D911101C01E8EBE016F5F88
:101C30007F4F86E00E94C421811190CF8FCEAF8D5F
:101C4000A11101C01E8EBE016F5F7F4F87E0F2CFF2
:101C500080918605823008F481CF8EE180C4FE8DAC
:101C6000F23009F0EAC22F8D112309F4E7C220E017
:101C700030E0A901609190057091910580919205E5
:101C8000909193050E943735882309F4CFCA143008
:101C900050F4123008F0ECC0113081F08EED2822A3
:101CA00080EE382213C01830C8F7FF8DFF2309F4E7
:101CB0005ACE0E945808882389F33CC13F8D3111C8
:101CC000EDCF3EED23223CEF33221E8E84E223280B
:101CD00009F045C48091A1059091A205A091A305AA
:101CE000B091A4058093590590935A05A0935B0584
:101CF000B0935C058091870580934705809190059E
:101D000090919105A0919205B0919305809354050F
:101D100090935505A0935605B0935705C090AD0517
:101D2000D090AE05E090AF05F090B005A701960108
:101D30006091500570915105809152059091530525
:101D40000E9437358823C1F080914F05882321F008
:101D5000B701A6010E944F138091AD059091AE0589
:101D6000A091AF05B091B0058093500590935105B7
:101D7000A0935205B09353058091B1058093580507
:101D800080918F0590914F05981771F04091500503
:101D90005091510560915205709153050E944F1367
:101DA00080918F0580934F0580918E0590914E050F
:101DB000981731F00E94781380918E0580934E051C
:101DC00080918505813051F46091A5057091A6053B
:101DD0008091A7059091A8050E94360780918A05F9
:101DE00080934A0580918805809348059E8D9330A5
:101DF000B9F480918B0580934B05813009F022C2A4
:101E00008091BA059091BB05A091BC05B091BD052C
:101E10008093810590938205A0938305B0938405F8
:101E200080918C0590914C05981759F080934C0542
:101E30008CE0FE013D96A9E6B5E001900D928A95F1
:101E4000E1F78091890580934905E0918505E2508D
:101E5000E83008F014C2F0E0E05DF04F0C94D038A8
:101E60002B115A1175115A117B113F117F118511D8
:101E70008F8D882309F477CDB8A5AB2FB0E0BBA731
:101E8000AAA7F9A5EF2FF0E0FDA7ECA781E090E06D
:101E90008C0108A402C0000F111F0A94E2F709A4E4
:101EA00002C0880F991F0A94E2F7082B192B2F8D77
:101EB000822F90E080239123892B09F40DC3CD015B
:101EC000880F991F880F991FFC01EB57FA4F8A5B07
:101ED0009A4FDC0157962D913D914D915C915A9707
:101EE00065A576A587A590A90E9441346B017C0168
:101EF0008CA59DA5880F991F880F991FFC01EB5792
:101F0000FA4F8A5B9A4FDC0157962D913D914D9186
:101F10005C915A9765A576A587A590A90E94413442
:101F20002B013C0127FEDDC0E89427F80E945808E9
:101F3000882311F081E213C36091A9057091AA056D
:101F40008091AB059091AC0520918805213071F40A
:101F500023E333E34BEC51E40E9499376093A905E6
:101F60007093AA058093AB059093AC058090A9056A
:101F70009090AA05A090AB05B090AC0520E030E0B1
:101F800040E850E4C501B4010E949937A5019401CD
:101F90000E9499374B015C01A7019601C701B60168
:101FA0000E9499379B01AC01C501B4010E944134E4
:101FB0004B015C01A3019201C301B2010E94993758
:101FC0009B01AC01C501B4010E9441344B015C018D
:101FD00020E030E0A9010E94373587FD7FC2C501AE
:101FE000B4010E9438384B015C01A3019201C70182
:101FF000B6010E94FC289B01AC01C501B4019058B8
:102000000E9441354B015C0180918605833021F4AB
:10201000B7FAB094B7F8B0948091A9059091AA0549
:10202000A091AB05B091AC058F8F98A3A9A3BAA3DB
:1020300020E030E0A901BC01CD010E94373587FFC7
:1020400011C0B7FAB094B7F8B0948F8D98A1A9A138
:10205000BAA1B0588093A9059093AA05A093AB05A7
:10206000B093AC050AA51BA5000F111F000F111F8F
:1020700007571A4FA3019201C501B4010E94993775
:102080009B01AC01C701B6010E94413420E030E061
:1020900040E05FE30E949937D8011B966D937D93D2
:1020A0008D939C931E970CA51DA5000F111F000F6B
:1020B000111F07571A4FA7019601C501B4010E94CD
:1020C0009937A30192010E94423420E030E040E0C1
:1020D0005FE30E949937F801638774878587968745
:1020E000DDCDFFA18F2E912C0F23192183E2012B2F
:1020F00009F435C221EF222280918805813049F50B
:1021000025E8A22E25E0B22E10E000E0C401002E4A
:1021100002C0959587950A94E2F780FF12C023E3E9
:1021200033E34BEC51E4D5011F966D917D918D9178
:102130009C9152970E949937F5016787708B818B2C
:10214000928B0F5F1F4FF4E0AF0EB11C03301105EF
:10215000E9F60CA51DA5000F111F000F111F075751
:102160001A4FD8011B962D913D914D915C911E9770
:10217000C301B2010E9441342B013C01AAA4BBA4BB
:10218000AA0CBB1CAA0CBB1CF501E757FA4F5F0158
:102190002385348545855685C701B6010E944134A3
:1021A000A30192010E94FC286B017C01D8011B96BF
:1021B0002D913D914D915C911E97F501638574853C
:1021C000858596850E94FC284B015C018092A905BB
:1021D0009092AA05A092AB05B092AC05AC019B0110
:1021E000C701B6010E9441346B017C01E894F7F805
:1021F0002AE037ED43EA5BE3C701B6010E94593795
:1022000018160CF04BCD20E030E040E05FE3C70152
:10221000B6010E94593718160CF48CCE2FE632E125
:1022200043E85AE3C501B4010E949937A70196011A
:102230000E94373587FF32CD7DCE2E8D222309F4C3
:1022400040CD2CCD1092810510928205109283050D
:1022500010928405E5CDBE016F5F7F4F8BA10E9478
:10226000782080914C05ABA18A1309C08CE0FE0157
:102270003196A9E6B5E001900D928A95E1F7E091DB
:102280008605E0934605E83009F459C0BE8DB230AA
:1022900009F055C0E83008F049C0F0E0EE5AFE4EB3
:1022A0000C94D0388D11BF11CA11EF1105121612FE
:1022B00021122C12BE8DBB2349F020E040E050E0FB
:1022C00060E87FEB82EB95E00E94140420E040E0A0
:1022D00050E060E87FEBCE0101960E9414048CE090
:1022E000FE013196ADE5B5E0C6CF6DE575E086E05F
:1022F0000E947820C4CF6DE575E087E0F9CF8CE0CF
:10230000E2EBF5E0A5E7B5E0B6CFE5E7F5E08CE078
:10231000DF011D928A95E9F7B2CF20E040E050E05E
:1023200060E87FEB82EB95E00E9414048CE0E2EB26
:10233000F5E0ADE5B5E001900D928A95E1F7809169
:102340008D0580934D05882309F409C10E94091663
:1023500090914D0580912605913009F088C082301A
:1023600051F09FB7F89480914305886080934305AE
:102370009FBF0E94641410924D0580E0F0C0409110
:10238000540550915505609156057091570520915F
:102390004705C8CFC0905405D0905505E09056052C
:1023A000F09057050091A9051091AA052091AB0561
:1023B0003091AC0581E08F93EEA5EF93F9A5FF93E3
:1023C00088A4A090470544E955E062EB75E08DE5EF
:1023D00095E00E944C040F900F900F90A7CFC090F3
:1023E0005405D0905505E0905605F09057050091A2
:1023F000A9051091AA052091AB053091AC051F925B
:102400008EA58F9399A59F93DBCF40915405509152
:1024100055056091560570915705E12C00E020911B
:10242000470582EB95E00E94A30780CF40915405B9
:10243000509155056091560570915705EE24E3942F
:10244000EDCF40915405509155056091560570911E
:102450005705E12C01E0E3CF40915405509155051B
:102460006091560570915705EE24E394F3CF91E007
:102470009093460510924A0510924905109247051F
:1024800010924C0510924F0510924E058230B1F01B
:10249000BE01635F7F4F80E00E94C421882309F45E
:1024A0005DCA8CE0FE013D96A9E6B5E001900D9273
:1024B0008A95E1F70E94E9120E946D1387E00E945D
:1024C000DD2D59CF81E04BC082E049C089E147C092
:1024D00084E045C08BE143C080E241C082E23FC05E
:1024E0001E3111F40C94080A40F41A3011F40C94C3
:1024F000FE091C31C9F00C94F909153311F40C9440
:102500001A0A1C3509F44EC00C94F9091E3111F455
:102510000C94060AE8F51A3011F40C94FC091C31ED
:1025200009F01CC8F1E0FE8F6115710511F40C94DF
:10253000010A6A30710511F00C94840934E030937B
:10254000850510E0C20102C0880F991F1A95E2F7B5
:102550009C012A213B21232B09F43FC885E1AE963B
:102560000FB6F894DEBF0FBECDBFDF91CF911F91A4
:102570000F91FF90EF90DF90CF90BF90AF909F9022
:102580008F907F906F905F904F903F902F90089525
:10259000153311F40C94180A1C3511F00C94AE0A82
:1025A000E1E0EE8F6115710511F40C941E0A6A309A
:1025B000710511F00C94840929E00C94020A15307D
:1025C00009F440CB173009F443CB133009F0C6CAE5
:1025D0002CCBE0EBF0E080818F7780830895239A05
:1025E000259A0C94E912CF92DF92EF92FF926A0142
:1025F0007B01811106C0FF90EF90DF90CF900C948B
:10260000E912813009F045C02D9883E88093B0002D
:102610008091B100887F82608093B10020E030E03B
:10262000A901C701B6010E943735181624F720E02A
:1026300030E0A901C701B6010E94373587FD2BC0E4
:1026400020E030E04AE754E4C701B6010E94593760
:10265000181634F4C12CD12C8AE7E82E84E4F82E25
:102660002CE53FE842E85EE3C701B6010E949937D6
:1026700020E030E040E05FE30E9442340E942636D2
:102680000E94BA356093B300FF90EF90DF90CF9037
:1026900008952D9ABACFC12CD12C7601E1CFCF92DB
:1026A000DF92EF92FF92CF9390912605923079F0CE
:1026B0006A017B01C82F0E940916B701A6018C2F61
:1026C000CF91FF90EF90DF90CF900C94F312CF91C9
:1026D000FF90EF90DF90CF900895439808953B9A34
:1026E0000C946D13823011F4439A08950C946D1379
:1026F000CF9390912605923039F0C82F0E94091689
:102700008C2FCF910C947213CF9108959091020168
:1027100080910301891710F0891B08958058FCCF20
:10272000E0ECF0E08081826080831092C50080E15F
:102730008093C400E1ECF0E080818061808380813F
:10274000886080838081806880830895E0910101A2
:1027500091E09E0F903409F490E020910001291738
:1027600061F0F0E0E254FA4F808390930101809190
:10277000C10080628093C10004C02091430524FF02
:10278000ECCF08951F920F920FB60F9211248F93E2
:102790009F93EF93FF9380910001E82FF0E0E254C4
:1027A000FA4F90819093C6008F5F803409F480E0E7
:1027B0008093000190910101981305C08091C100A0
:1027C0008F7D8093C100FF91EF919F918F910F902A
:1027D0000FBE0F901F9018959091020180910301F8
:1027E000891761F0E92FF0E0E250FA4F80819F5F96
:1027F000903809F490E09093020108958FEF0895C6
:102800001F920F920FB60F9211242F933F934F9365
:102810005F936F937F938F939F93AF93BF93EF9348
:10282000FF938091C6008F3311F1B8F4883109F419
:1028300043C08132A9F1E091030191E09E0F9038ED
:1028400009F490E0209102012917C9F0F0E0E2506C
:10285000FA4F80839093030112C0803439F18E3790
:1028600051F79FB7F89480914305826005C09FB7E8
:10287000F894809143058160809343059FBFFF9149
:10288000EF91BF91AF919F918F917F916F915F91E8
:102890004F913F912F910F900FBE0F901F90189561
:1028A0009FB7F894809143058860E6CF9FB7F8946E
:1028B000809143058062E0CF0E942D08E0CF809197
:1028C0000301809302010895EF92FF920F931F93EB
:1028D000CF93DF93D1E008E080E2F82E10E190E49E
:1028E000E92EC0914505CC2359F1D093260581E00E
:1028F000C1FD0CC082E0C2FD09C083E0C3FD06C07B
:1029000084E0C4FD03C0C5FF03C085E00E94B32D71
:10291000C0FF0FC081E00E94DD2D9FB7F894809129
:1029200043058F7E809343059FBF8091430584FFBD
:10293000FCCF8FB7F89490914505109245058FBF55
:10294000C0914305CC2309F4BFC0C4FF0AC081E095
:1029500080932505DF91CF911F910F91FF90EF900C
:102960000895C0FF0AC00E9422319FB7F894809159
:1029700043058E7F809343059FBF8C2F887609F493
:102980003CC080912605882349F0982F9C7769F1F7
:10299000883021F40E941119D093270580912605D3
:1029A000811103C092E090932705C6FF09C08830CB
:1029B00011F4E09226058091270588608093270511
:1029C000C3FF05C08091260585FF10932605C5FF2E
:1029D0000CC086E00E94DD2D8091270581FDC4603A
:1029E000846080932705F09226059FB7F894809124
:1029F00043058779809343059FBFC1FF46C08C2F55
:102A00008876D9F580912605882331F08075A9F163
:102A10008091270581FF31C08091270582FF1CC06E
:102A200080914F05882371F04091500550915105D8
:102A300060915205709153050E94F31280EA9FE065
:102A40000E94F22880914E05882331F00E94721373
:102A500088EE93E00E94F2280E94AC24892B09F4AE
:102A60004CC08091270583FD48C0009326050E9435
:102A700033190E941A16109227059FB7F894809177
:102A800043058D7F809343059FBFC2FF1DC080918A
:102A900026058073A9F180912805811131C08091AC
:102AA000270582FF04C00E94E9120E946D138091E5
:102AB00027058260809327059FB7F894809143058E
:102AC0008B7F809343059FBF809126058C7711F003
:102AD0000E94331980912605803251F48091270598
:102AE00081FF06C00E946232811102C01093260548
:102AF000809127058111F5CE2DCF10922605BBCFF1
:102B00001092270510922605D7CF9FB7F894809191
:102B100043058260809343059FBF0895CF93DF9361
:102B20000E94122E80912605813031F482E00E94AD
:102B3000DD2DC0E0D0E029C00E946232882361F020
:102B4000809143058062809343050E94641484E071
:102B500091E00E946432EDCF10922605F8CF8A30C2
:102B600011F08D3099F5EC2FF0E0EC5FFE4F108204
:102B70000E946414D0912505D111DBCF809104010E
:102B8000811112C00E94AB2DC0E00E94EC138F3F58
:102B900031F70E9485150E946414809125058823D1
:102BA000A1F3DF91CF910895843229F484E091E07C
:102BB0000E948432E7CF80912605813011F489E0AC
:102BC000E1CF84E091E00E94B108DCCFDD2339F051
:102BD0008932D9F6D13009F4ADCFD2E0D6CF8132E7
:102BE000A0F28F3291F2883291F08B33B1F3CF346F
:102BF00010F08BE0C7CFEC2FF0E0EC5FFE4FCF5F23
:102C00009FE9980F9A3108F480528083BECFD1E0BB
:102C1000BCCF0E9485150E94641480912505811106
:102C200008C00E94AC24892BB1F78091260588301A
:102C300091F308958091BB0682FF1BC0289A809172
:102C400026058C70A9F08091820180939601809175
:102C50008301809395018091AE068250990B880F75
:102C600081958093940180916F00826080936F00C2
:102C700008952898E4CF80916F008D7F80936F0036
:102C800080918100887F8160809381001092810112
:102C90008091B1068F3F21F490914505992391F0E1
:102CA00090912605943071F090E00E94F22881E026
:102CB0009091BB0692FF02C091E08927882321F002
:102CC000289A089580E0F4CF289808951F920F92D3
:102CD0000FB60F9211240F931F932F933F934F938F
:102CE0005F936F937F938F939F93AF93BF93EF9374
:102CF000FF93809181018111D7C19BB18091960191
:102D0000807E9F71892B8BB98BB1837E90919501C9
:102D1000892B8BB98091940186BD82E085BD81E0CD
:102D20008093810178948091A8019091A901892BC9
:102D300009F0A1C08091860190918501981709F44E
:102D4000A9C1E09186012E2F30E086E0E89FF001D6
:102D50001124E655FE4FF093A901E093A801838169
:102D600094819093890080938800808191819093D1
:102D7000A4018093A301E2818091A5018E1761F1E6
:102D8000E093A50181E1E89FF0011124E253FE4F99
:102D9000F093A701E093A60185859685A785B08964
:102DA000B695A7959795879580938F0190939001FD
:102DB000A0939101B093920180938B0190938C0129
:102DC000A0938D01B0938E01809387019093880129
:102DD000A0938901B0938A01E091A601F091A70127
:102DE00080819091820189278093960186E0829F5D
:102DF000D001839FB00D1124A655BE4F15962C917E
:102E000081819281A381B481022E04C0B695A795D9
:102E1000979587950A94D2F780939701909398019C
:102E2000A0939901B0939A0185819681A781B0857D
:102E3000022E04C0B695A795979587950A94D2F768
:102E400080939B0190939C01A0939D01B0939E0160
:102E500081859285A385B48504C0B695A79597957D
:102E600087952A95D2F780939F019093A001A09314
:102E7000A101B093A2010E94342D1092950180917E
:102E8000870190918801A0918901B0918A014091B8
:102E90009701509198016091990170919A01840F66
:102EA000951FA61FB71F8093870190938801A09359
:102EB0008901B0938A01E091A601F091A7014585AF
:102EC000568567857089481759076A077B0728F573
:102ED00024E020939501841B950BA60BB70B8093E0
:102EE000870190938801A0938901B0938A01809112
:102EF000290590912A05A0912B05B0912C052081E0
:102F000025FFE5C00197A109B10980932905909398
:102F10002A05A0932B05B0932C0580918B019091ED
:102F20008C01A0918D01B0918E0100919B011091B7
:102F30009C0120919D0130919E01800F911FA21F45
:102F4000B31F80938B0190938C01A0938D01B0935C
:102F50008E01481759076A077B0738F520919501BC
:102F6000286020939501841B950BA60BB70B8093CB
:102F70008B0190938C01A0938D01B0938E01809171
:102F80002D0590912E05A0912F05B091300520813F
:102F900026FFA1C00197A109B10980932D05909347
:102FA0002E05A0932F05B093300580918F0190914D
:102FB0009001A0919101B091920100919F01109117
:102FC000A0012091A1013091A201800F911FA21FA9
:102FD000B31F80938F0190939001A0939101B093C0
:102FE0009201481759076A077B0738F52091950128
:102FF000206120939501841B950BA60BB70B809342
:103000008F0190939001A0939101B09392018091D0
:10301000310590913205A0913305B091340520819E
:1030200027FF5DC00197A109B109809331059093F5
:103030003205A0933305B093340580912605843082
:1030400039F48091420590919501892380939501EF
:103050008091A3019091A40101979093A401809382
:10306000A301892B69F41092A9011092A801809103
:1030700086018F5F80938601863011F4109286015D
:1030800080919501909183018927809395011092F9
:1030900081010AC00E943B169FB7F89480914305B6
:1030A0008460809343059FBFFF91EF91BF91AF91E3
:1030B0009F918F917F916F915F914F913F912F9150
:1030C0001F910F910F900FBE0F901F9018950196B2
:1030D000A11DB11D1ACF0196A11DB11D5ECF019694
:1030E000A11DB11DA2CF1F920F920FB60F921124F6
:1030F0008F939F939BB1809183018C71937E892BD9
:103100008BB915BC9F918F910F900FBE0F901F90A0
:1031100018950F931F93CF93DF9310928301109212
:103120008201D0E0C0E01C2F0C2F8091AF0690E010
:103130000C2E02C0959587950A94E2F780FF08C08F
:10314000812F0E94212390918301892B80938301F9
:103150008091B00690E002C0959587950A95E2F7B8
:1031600080FF08C0812F0E942B2390918201892B20
:10317000809382012196C330D105A9F6DF91CF91CA
:103180001F910F9108950E943B16E4E5F1E08BE258
:10319000DF011D928A95E9F7E7E8F1E083E2DF01BC
:1031A0001D928A95E9F71092800110927F0110928A
:1031B00086011092850181E0809384011092810143
:1031C0000E9489188BB1837E90918301892B8BB9E2
:1031D0008BB18F7190918201892B8BB908958AB13F
:1031E0008C618AB9209A8AB1806E8AB9E1E8F0E0F0
:1031F00080818F7E8083808188608083E0E8F0E03A
:1032000080818C7F808380818F708083EEE6F0E008
:103210008081887F808314BC15BC8081816080831D
:103220000895CF93DF93C0917F01D09180012097C3
:10323000B9F081E08093550160916B0170916C0150
:1032400080916D0190916E019B01AC010E949937B4
:10325000698B7A8B8B8B9C8B1092800110927F01F3
:10326000DF91CF9108952F923F924F925F926F928C
:103270007F928F929F92AF92BF92CF92DF92EF9206
:10328000FF920F931F93CF93DF93CDB7DEB7E697EF
:103290000FB6F894DEBF0FBECDBF809126058077B4
:1032A00009F451C420E030E0A90160916B017091F4
:1032B0006C0180916D0190916E010E9437358111F2
:1032C00042C4E6960FB6F894DEBF0FBECDBFDF91C5
:1032D000CF911F910F91FF90EF90DF90CF90BF9013
:1032E000AF909F908F907F906F905F904F903F90A6
:1032F0002F900895809154018F5F853009F4ACC000
:1033000080935401E091540121E12E9FF00111249A
:10331000E253FE4FD1018C91808311964D915D91C6
:103320006D917C911497DB01CA0123E0880F991FEE
:10333000AA1FBB1F2A95D1F781839283A383B483ED
:10334000D10115964D915D916D917C911897DB019E
:10335000CA0133E0880F991FAA1FBB1F3A95D1F706
:1033600085839683A783B087D10119964D915D918E
:103370006D917C911C97DB01CA0143E0880F991F76
:10338000AA1FBB1F4A95D1F781879287A387B4876D
:10339000D1011D966D917D918D919C9150976B01FE
:1033A0007C0153E0CC0CDD1CEE1CFF1C5A95D1F7C0
:1033B000C586D686E786F08A0E94E9356093560175
:1033C000709357018093580190935901F10125A101
:1033D00036A147A150A50E9441359B01AC01209325
:1033E0005A0130935B0140935C0150935D0160E0B2
:1033F00070E080EA9FE30E94413560935E01709324
:103400005F018093600190936101109262011092BC
:1034100063011092640110926501812F8077F9F0A9
:1034200060917301709174018091750190917601A2
:1034300060936B0170936C0180936D0190936E01AA
:103440009B01AC010E949937D10151966D937D93F8
:103450008D939C93549798C31092540153CFF101CC
:1034600061897289838994890E94383860936B01DD
:1034700070936C0180936D0190936E0185C380926F
:10348000670190926801A0926901B0926A0110925E
:103490007301109274011092750110927601D6C3D7
:1034A0001092660140927701509278016092790102
:1034B00070927A010E94BC242B013C01409273015E
:1034C000509274016092750170927601AC019B017B
:1034D0000E9499376D837E838F839887E0917F0167
:1034E000F0918001FE87ED8725A136A147A150A567
:1034F00029873A874B875C87218932894389548998
:1035000029833A834B835C839B01AC0169817A8177
:103510008B819C810E944134A50194010E949937BE
:1035200029853A854B855C850E94423420E030E055
:1035300040E05FE30E9499376B017C0120E030E0BE
:10354000A9010E94593718160CF0ABC0A7019601CB
:1035500069857A858B859C850E94593718160CF0F1
:103560008CC0ED85FE85458C568C678C70A02D81B6
:103570003E814F815885C301B2010E944134A501AB
:1035800094010E94993760937B0170937C01809332
:103590007D0190937E01A70196010E94373587FF38
:1035A0003BC0C301B2010E94383860936F01709331
:1035B00070018093710190937201A301920169815E
:1035C0007A818B819C810E943735811104C0F1E0A2
:1035D000F09366013BC329813A814B815C81C30131
:1035E000B2010E944134A50194010E9499379B01C8
:1035F000AC0160917701709178018091790190918F
:103600007A010E944134609377017093780180932E
:10361000790190937A011AC3C0927701D092780110
:10362000E0927901F0927A01C0927B01D0927C0104
:10363000E0927D01F0927E01AD85BE8591966D91FF
:103640007D918D919C9194979B01AC010E94423495
:10365000A70196010E9499372D813E814F8158859F
:103660000E9442340E94383860936F017093700159
:103670008093710190937201E9C280916B019091E6
:103680006C01A0916D01B0916E01E2E0E0936601E2
:1036900080936F0190937001A0937101B0937201B8
:1036A000D5C2109277011092780110927901109290
:1036B0007A0140926F015092700160927101709294
:1036C0007201C4C241E048AB5AC30C8B1D8BBEA92A
:1036D000BE8BEDA9EF8B69C3AD85BE8591962D910B
:1036E0003D914D915C919497C701B6010E94993725
:1036F0004B015C0120E030E040E05FE30E9499373D
:10370000222D39814D81532D0E944234A70196010B
:103710000E9499379B01AC016C897D898E899F89B4
:103720000E9441348B018EAB9DAB9B01AC01688D37
:10373000798D8A8D9B8D0E94593718160CF0ECC03C
:10374000288D398D4A8D5B8D6CA57DA58EA59FA595
:103750000E9441349B01AC010E9442346B017C0108
:103760002C8D3D8D4E8D5F8D622D79818D81932DB8
:103770000E9442349B01AC01C701B6010E94413551
:103780006B017C012C8CBD8DB983EE8DED833F8C5C
:10379000F8A9FF87088D198D2A8D2EAB3B8D3DAB87
:1037A000A7019601688979898A899B890E94423498
:1037B000688B798B8A8B9B8B9B01AC01C301B20117
:1037C0000E94593718160CF016C1288939894A8980
:1037D0005B89C301B2010E9441346B017C019801F5
:1037E0004EA95DA96CA17DA18EA19FA10E94373534
:1037F00087FD6BCFFF85F0936601822D9981AD81A6
:10380000B32D80936B0190936C01A0936D01B093E5
:103810006E0140905A0150905B0160905C01709085
:103820005D0198014EA95DA9C301B2010E949937BB
:1038300069837A838B839C830E9420356B017C0192
:1038400060915601709157018091580190915901F2
:103850000E9420354B015C01A70196010E94413472
:103860000E94BA356D837E838F83988786E0498571
:103870005A85849FF001859FF00D1124E655FE4F77
:10388000AD81BE81B183A083AB2B09F0CEC0809106
:103890002605807709F4C9C010926B0110926C0163
:1038A00010926D0110926E011092620110926301EC
:1038B0001092640110926501C0925601D092570196
:1038C000E0925801F0925901A3019201C701B6019B
:1038D0000E944135AD85BE8595966D937D938D9300
:1038E0009C939897E6960FB6F894DEBF0FBECDBFB7
:1038F000DF91CF911F910F91FF90EF90DF90CF90CC
:10390000BF90AF909F908F907F906F905F904F90FF
:103910003F902F900C943128A5019401622D79815C
:103920008D81932D0E944234262E79838D83392EEA
:1039300037CFA70196016C8D7D8D8E8D9F8D0E9456
:1039400099379B01AC016C897D898E899F890E9482
:1039500041348B018EAB9DAB9B01AC0168A179A179
:103960008AA19BA10E94593718160CF019CF28A1E3
:1039700039A14AA15BA16C897D898E899F890E94AA
:1039800041342C8D3D8D4E8D5F8D0E9441356B01F4
:103990007C0108A119A14AA14EAB5BA15DAB82E0FD
:1039A0008F87FECE2CA13DA14EA15FA16C897D89A0
:1039B0008E899F890E9441349B01AC010E94423450
:1039C0006B017C0129A93AA94BA95CA9622D7981D7
:1039D0008D81932D0E9442349B01AC01C701B60139
:1039E0000E9441356B017C010CA11DA1BEA1BEABA3
:1039F000EFA1EDABD5CE28A539A54AA55BA5B801A9
:103A00008EA99DA90E94593718165CF42EE333EC59
:103A10004EE259E3C301B2010E9442342B013C0142
:103A2000D4CE2F8520936601E8CE2091620130919B
:103A300063014091640150916501688979898A899F
:103A40009B890E9442342B013C0129813A814B81A0
:103A50005C81C501B4010E9441349B01AC01C301EA
:103A6000B2010E9441354B015C0129813A814B81B1
:103A70005C81C701B6010E944134A50194010E94F6
:103A8000993760936201709363018093640190930E
:103A9000650120EC31EE44E65EE4C501B4010E940C
:103AA00099370E9420350E94BA35603DB7E07B0708
:103AB0008105910508F0CBC146E029853A85429FF2
:103AC000F001439FF00D1124E655FE4F158246E0AC
:103AD00029853A85429FF001439FF00D1124E65558
:103AE000FE4F7483638380918401809385018F5F8F
:103AF000863009F405C28093840198014EA95DA91E
:103B000060916701709168018091690190916A01EB
:103B10000E94373587FFF7C1E0917F01F091800166
:103B2000C801AEA9BDA985A396A3A7A3B0A7298163
:103B30003A814B815C812093560130935701409329
:103B400058015093590190918601809184019817F2
:103B500009F4B7CB80917F0190918001892B09F006
:103B600075C00E94AC241C019093800180937F015A
:103B7000892B09F4A6CB8091550110912605882345
:103B800009F4B8CB109255011092670110926801A8
:103B90001092690110926A01D1019196CD90DD9049
:103BA000ED90FC909497A701960160E070E080E0B2
:103BB0009FE30E9441354B015C01F10145A056A0F5
:103BC00067A070A4107709F46BCCF2E0F093660163
:103BD000D10151962D913D914D915C91549729833E
:103BE0003A834B835C83AC019B0169817A818B8131
:103BF0009C810E9499379B01AC01C301B2010E94D4
:103C000041344B015C0120E030E0A9010E943735CE
:103C100087FF35CCA7019601C701B6010E94423447
:103C2000A30192010E9499379B01AC0169817A81BD
:103C30008B819C810E9441340E94383860937301CB
:103C40007093740180937501909376018091850142
:103C5000282F30E03A87298746E0429FF001439FB2
:103C6000F00D1124E655FE4F80915401828380911E
:103C70007F01909180019E878D87DC019596BC9194
:103C8000BCA7FC01F6A1FDA7DC019796BC91BEA7DD
:103C9000FC01F0A5FFA720915E0130915F014091EA
:103CA0006001509161016CA57DA58B2F9F2F0E9413
:103CB000413468A779A78AA79BA720E030E0A90133
:103CC0000E94373587FF04C018A619A61AA61BA69E
:103CD00020916F012C8F309170013D8F40917101C7
:103CE0004E8F509172015F8F80917B0188A39091DC
:103CF0007C0199A3A0917D01AAA3B0917E01BBA3F1
:103D0000E0917701E88FF0917801F98F20917901A6
:103D10002A8F30917A013B8F409166014F87209026
:103D20006B0150916C01598380916D018D833090AE
:103D30006E01909167019CA3A0916801ADA3B09121
:103D40006901BEA3E0916A01EFA320917301309154
:103D50007401409175015091760129AB3AAB4BABA0
:103D60005CAB28A139A14AA15BA1688D7F2F8A8D08
:103D70009B8D0E9437358111A5CC32E038AB5CA514
:103D80005C8B8DA58D8B9EA59E8BAFA5AF8B8EE397
:103D9000C82E83ECD82E8EE2E82E89E3F82E188AFE
:103DA000198A1A8A1B8A26013701FF85FF2309F425
:103DB00093CCF13009F4BDCDAD85BE8591962D91A2
:103DC0003D914D915C919497C701B6010E9499373E
:103DD0004B015C01AC019B01622D79818D81932D9A
:103DE0000E94593718160CF0DDCD20E030E040E09D
:103DF0005FE3C501B4010E9499379B01AC01622DBC
:103E000079818D81932D0E944134A70196010E94F2
:103E100099379B01AC016C897D898E899F890E94AD
:103E200041348B018EAB9DAB9B01AC016CA17DA19C
:103E30008EA19FA10E94373587FFB4CDA5019401C3
:103E4000622D79818D81932D0E9441346DCD603A30
:103E50005FE0750781059105A0F526E0A985BA8583
:103E60002A9FF0012B9FF00D1124E655FE4F31E003
:103E7000358346E029853A85429FF001439FF00D46
:103E80001124E655FE4F2581022E04C09695879594
:103E9000779567950A94D2F7AD81BE8102C0AA0FCB
:103EA000BB1F2A95E2F7B183A08361157105B1E0CC
:103EB0008B07910508F40BCE8FEF9FEF94838383DC
:103EC00012CE60344FE174078105910560F426E05D
:103ED000A985BA852A9FF0012B9FF00D1124E65584
:103EE000FE4F32E0C5CFA6E049855A85A49FF00178
:103EF000A59FF00D1124E655FE4FB3E0B583B9CF71
:103F000010928401FACD20E030E0A901B8018EA919
:103F10009DA90E94593718166CF510926B011092EA
:103F20006C0110926D0110926E011092620110925C
:103F300063011092640110926501C0925601D09203
:103F40005701E0925801F092590140917F01509140
:103F500080015A83498320915A0130915B0140913D
:103F60005C0150915D01C701B6010E944135A981F4
:103F7000BA81B2CC1092800110927F010E949824E5
:103F8000E2CDF999FECF92BD81BD81E08FBB80B5B6
:103F90000895F894F999FECF92BD81BD81E08FBB61
:103FA00020B5862F8227082E000C990B50E086231F
:103FB0009523892B49F084E16F3F11F060BD84E0C7
:103FC0008FBBF99A789408952617E1F360BD84E2D7
:103FD000F7CF9F92AF92BF92CF92DF92EF92FF9274
:103FE0000F931F93CF93DF935C018A017B01E40E53
:103FF000F51EEB01912C6C01C61AD70ACE018C0D6F
:104000009D1DCE15DF0589F4692DC501800F911F17
:10401000DF91CF911F910F91FF90EF90DF90CF90A4
:10402000BF90AF909F900C94C91F21E0911007C0E2
:10403000292D990C330B232F221F2227221F699130
:10404000962E920E0E94C91FD9CF9F92AF92BF9217
:10405000CF92DF92EF92FF920F931F93CF93DF9354
:104060005B018A017C01E40EF51EEC01912C6B01D1
:10407000C81AD90AC6018C0F9D1FCE15DF05C1F4E1
:10408000C501800F911F0E94C11F21E030E08915FA
:1040900011F030E020E0C901DF91CF911F910F9125
:1040A000FF90EF90DF90CF90BF90AF909F900895DA
:1040B0000E94C11F21E0911007C0292D990C330BDC
:1040C000232F221F2227221F982E920E8993D2CFB0
:1040D00021E5829FC001112440E550E09D5F0C94D2
:1040E000E91F40E550E0BC018EEA93E00C94E91F23
:1040F0002DE0829FC00111244CE050E09E5F0C94A3
:10410000E91F69E090E080E00E94C91F4DE450E0A3
:104110006EE776E081E090E00C94E91FEF92FF9269
:104120000F931F93CF93DF93CDB7DEB72C970FB6C6
:10413000F894DEBF0FBECDBF182F80FFC1C08AE04C
:104140008093AE0689E18093B1061092AF0610927B
:10415000B00683E08093B2068AE097EDA3E2BCE369
:104160008093B3069093B406A093B506B093B606B9
:104170008FE692E1A3E0BBE38093B7069093B80685
:10418000A093B906B093BA061092BC0680E090E006
:10419000A8ECB1E48093BD069093BE06A093BF0641
:1041A000B093C00680E090E0AAEFB3E48093C1062C
:1041B0009093C206A093C306B093C4062AEF30E0E2
:1041C0003093C6062093C50640E050E060E87FE3E8
:1041D0004093C7065093C8066093C9067093CA06F9
:1041E0001092BB0640E050E06AE773E440937E061D
:1041F00050937F06609380067093810640938206F9
:1042000050938306609384067093850640938606D8
:1042100050938706609388067093890680938A0678
:1042200090938B06A0938C06B0938D0680938E0698
:1042300090938F06A0939006B09391068093920678
:1042400090939306A0939406B093950680E090EA2D
:10425000ACE0B7E48093960690939706A0939806F7
:10426000B093990680939A0690939B06A0939C0620
:10427000B0939D0680939E0690939F06A093A00600
:10428000B093A10680E090E0A8E4B3EC8093A2068E
:104290009093A306A093A406B093A5068093A606C8
:1042A0009093A706A093A806B093A9068093AA06A8
:1042B0009093AB06A093AC06B093AD060E9481200C
:1042C00011FF10C0CE0101967C018CE0F701119224
:1042D0008A95E9F700E0B701802F0E9478200F5FF0
:1042E0000830C9F712FF0AC060E080E093E00E9446
:1042F000C91F60E081E593E00E94C91F13FF05C05C
:1043000060E08EEA93E00E94C91F2C960FB6F894E5
:10431000DEBF0FBECDBFDF91CF911F910F91FF90F8
:10432000EF9008951F93CF93DF93182FEB0181E552
:10433000189FB00111247D5F40E550E0CE010E943E
:104340002520892B51F41882BE01812F0E946820FC
:1043500080E0DF91CF911F91089581E0FACFCF9354
:10436000DF93EC0140E550E06EEA73E00E94252007
:10437000892B41F41882CE010E94712080E0DF91E8
:10438000CF91089581E0FBCF1F93CF93DF93182F38
:10439000EB018DE0189FB00111247E5F4CE050E0EE
:1043A000CE010E942520892B71F48CE0FE01119230
:1043B0008A95E9F7BE01812F0E94782080E0DF9185
:1043C000CF911F91089581E0FACF90E080E00E94A4
:1043D000C11F893059F44DE450E061E070E08EE790
:1043E00096E00E94252021E0892B09F420E0822F0D
:1043F0000895CF92DF92EF92FF92CF93DF93C82F71
:104400006A017B0120E030E0A901CB01B6010E94E6
:10441000373587FD03C1C43608F44AC0C45620E0CE
:10442000C330E8F58C2F90E0880F991F880F991FF3
:10443000223079F0FC01233059F1213039F0E25873
:10444000F94FC082D182E282F38218C0E657F94F59
:10445000F8CFEC01CA56D94F20E030E040E752E4F3
:10446000C701B6010E94993720E030E040E752E4EE
:104470000E949937688379838A839B830E94812075
:1044800080E0DF91CF91FF90EF90DF90CF90089583
:10449000EE55F94FF7FAF094F7F8F094D2CF2F5F7A
:1044A000CA3008F4BDC0243009F4BAC0CA50B8CF2D
:1044B000C701B6010E947C380E94BA35CC3108F0A1
:1044C000AFC0EC2FF0E0E959FD4D0C94D0388322B9
:1044D0008A228D22922295229F22A7221023102326
:1044E0001023AF22B222BB22C42210231023102398
:1044F000102310231023CC22D622E222EA22ED221E
:10450000F622FF22052386E0633008F4BACF6093D9
:10451000AE06B4CF6093B106B1CF6093AF060E94F0
:104520008918ACCF6093B006FACF8091BB066623A2
:1045300021F084608093BB06A1CF8B7FFBCF80915D
:10454000BB06662311F08064F5CF8F7BF3CF80919B
:10455000BB06662311F08068EDCF8F77EBCF6093B9
:10456000B2068CCFC092B306D092B406E092B506E4
:10457000F092B60683CFC092B706D092B806E0920A
:10458000B906F092BA067ACF8091BB06662311F085
:104590008160D0CF8E7FCECF8091BB06662321F085
:1045A00084FF40C08062C6CF8F7DC4CF8091BB06A0
:1045B000662331F088608093BB060E942D295ECF70
:1045C000877FF9CF8091BB06662311F08061B2CF5F
:1045D0008F7CB0CF6093BC0651CFC092BD06D09205
:1045E000BE06E092BF06F092C00648CFC092C10658
:1045F000D092C206E092C306F092C4063FCF70E0AC
:104600007093C6066093C50639CFC092C706D09294
:10461000C806E092C906F092CA0630CF84E031CFD6
:1046200083E02FCF8AE02DCF0E94E521811108C0C1
:1046300087E00E94AB2D8FEF0E948E200C941A2EE3
:104640000895882321F0813021F080E1089584E0ED
:10465000089588E00895882321F0813021F080E8D2
:10466000089580E2089580E40895882321F0813040
:1046700021F080E1089582E0089584E008952F926A
:104680003F924F925F926F927F928F929F92AF92E2
:10469000BF92CF92DF92EF92FF920F931F93CF932F
:1046A000DF9300914102011101C002E1015010911C
:1046B0003F02101709F4BAC0E02EF12C29E2029F44
:1046C000E0011124CD5BDD4F8D889E88AF88B88CCA
:1046D00069A17AA18BA19CA19B01AC010E944234EB
:1046E0002DA13EA14FA158A50E9499376B01D82F4B
:1046F000C92F9B01482F592FB401C5010E9437359E
:1047000087FF03C06401DA2DCB2D89E28E9DF00175
:104710008F9DF00D1124ED5BFD4FC601AD2FBC2F19
:10472000818B928BA38BB48BC02F011101C0C2E18E
:10473000C1501C1709F45FC039E2039F80011124A6
:104740000D5B1D4FD9E280913F028C1709F459C0CF
:10475000EC2EF12CCD9FC0011124FC01ED5BFD4F2F
:104760006F01C11101C0C2E1C150809142028C139E
:1047700002C00E941119DE9DC001DF9D900D112421
:104780009C012D5B3D4F7901F90185889688A788AA
:10479000B08CA501940161897289838994890E94F2
:1047A0003735882331F1F70161A172A183A194A16A
:1047B0009B01AC010E944234F70125A136A147A11B
:1047C00050A50E949937F80121893289438954897B
:1047D0000E9442342B013C01AC019B01C501B40194
:1047E0000E945937F7011816A4F5418A528A638A44
:1047F000748A8601A8CF80914202811302C00E9470
:104800001119D0913F02F9E2DF9F800111240D5B65
:104810001D4FC1E0CD0FC23109F4C0E0209041022C
:1048200089E2382E2C121AC0D0933F02DF91CF912B
:104830001F910F91FF90EF90DF90CF90BF90AF90BE
:104840009F908F907F906F905F904F903F902F90B0
:104850000895818A928AA38AB48ACBCFCC2ED12C98
:10486000C39DC00111249C012D5B3D4F7901F801CE
:104870004188528863887488F90181889288A38866
:10488000B488A5019401C301B2010E94373587FFA6
:1048900024C0F80161A172A183A194A19B01AC0184
:1048A0000E944234F80125A136A147A150A50E94DB
:1048B0009937A30192010E9442342B013C01AC01C3
:1048C0009B01C501B4010E945937181634F4F70151
:1048D000418A528A638A748ADC2F3C9CF0013D9C99
:1048E000F00D1124ED5BFD4F258936894789508DE8
:1048F00061897289838994890E943735811101C049
:10490000DC2FCF5FC23109F4C0E087018BCFE3E237
:10491000F2E08CE1DF011D928A95E9F710924202E4
:104920001092410281E08093400210923F0208956C
:104930009091420280914102891769F081E0890FCC
:10494000823109F480E020913F02921302C08093EB
:104950003F02809342020895809142029091410269
:10496000981739F029E2829FC00111248D5B9D4F79
:10497000089590E080E00895E0914202EF5FE23117
:1049800009F4E0E0809141028E1761F089E2E89F2E
:10499000F0011124ED5BFD4F61897289838994894F
:1049A0000C94383860E070E0CB01089581E02091EC
:1049B000420290914002291380E008952F923F9285
:1049C0004F925F926F927F928F929F92AF92BF921F
:1049D000CF92DF92EF92FF920F931F93CF93DF93CB
:1049E000CDB7DEB7E2970FB6F894DEBF0FBECDBFEE
:1049F000498F5A8F6B8F7C8FE22E20914102422F7C
:104A000050E058A34F8F59E2259F90011124F901DE
:104A1000ED5BFD4F158616861786108A15A216A225
:104A200017A210A6108249E956E766E97EE741A37E
:104A300052A363A374A36C018EE796E09CA38BA39F
:104A4000AE01435F5F4F5EA34DA383E292E09CA75C
:104A50008BA7A9014C5B5D4F5EA74DA7CE010196C8
:104A60009AA389A398AB8FA723E232E03E8F2D8FC4
:104A70004EE756E05AA749A7F12C8F01CF010D96BA
:104A80009AAB89AB1F0195E2290E311CF6016191A9
:104A90007191819191916F01E9A5FAA58190919011
:104AA000A190B190FAA7E9A7A50194010E949937B6
:104AB0000E946637EDA1FEA161937193819391935A
:104AC000FEA3EDA3ED8DFE8D41905190619071900C
:104AD000FE8FED8F64197509860997092B013C013A
:104AE00097FF07C0442455243201461A570A680A22
:104AF000790AEDA5FEA54192519261927192FEA7AD
:104B0000EDA7E9A9FAA920813181428153812415B9
:104B100035054605570510F4A3019201E9A9FAA944
:104B200020833183428353830E94EB35A501940196
:104B30000E9441354B015C01EFA5F8A98192919249
:104B4000A192B192F8ABEFA720E030E0A9010E945A
:104B5000373587FF07C08F2D0E942B23F8019081E6
:104B6000892B8083A5019401C501B4010E94993766
:104B7000F10120813181428153810E944234F1014F
:104B80006083718382839383F394F3E0FF127ECF7B
:104B90000E9438384B015C01F10180829182A2822F
:104BA000B382F80185859685A785B089892B8A2BE4
:104BB0008B2B09F410C220E030E0A901698D7A8DB9
:104BC0008B8D9C8D0E94373587FD7CC1EE2061F076
:104BD000A5019401698D7A8D8B8D9C8D0E949937EA
:104BE000698F7A8F8B8F9C8F20E030E040E85FE305
:104BF000698D7A8D8B8D9C8D0E94373587FF06C01D
:104C0000198E1A8EF0E8FB8F2FE32C8FA5019401EB
:104C100060E070E080E89FE30E9441356DA37EA3D1
:104C20008FA398A7E9A1FAA13C96FAA7E9A7C12CFE
:104C3000D12C760129E24F8D58A1249FC001259FD8
:104C4000900D1124FC01EC59FD4FFE8FED8FE9A171
:104C5000FAA181909190A190B190FAA3E9A320E0EC
:104C600030E0A901C501B4010E943735882309F459
:104C70006BC02DA13EA14FA158A5C501B4010E9452
:104C800099372B013C01E9A1FAA134974082518266
:104C900062827382AC019B0160E070E080E89FE378
:104CA0000E9441354B015C01E894B7F8EBA1FCA1EF
:104CB0002485358546855785C501B4010E949937FD
:104CC0001B018C01298D3A8D4B8D5C8D0E945937CB
:104CD000181624F0298E3A8E0B8F1C8FED8DFE8DC9
:104CE0002080318002811381EBA1FCA1208D318DC8
:104CF000428D538DC501B4010E9499374B015C016F
:104D00009B01AC01B101C8010E94373587FD02C08B
:104D100014018501C101D801ED8DFE8D8083918341
:104D2000A283B383EBA5FCA52485358546855785ED
:104D3000C301B2010E9499379B01AC01C701B601C2
:104D40000E9441346B017C012BA53CA52C5F3F4F99
:104D50003CA72BA74BA15CA14C5F5F4F5CA34BA36F
:104D600089A59AA5E9A1FAA18E179F0709F06FCF2F
:104D700090914102809142029813ADC089E22F8D3B
:104D800038A1829FF001839FF00D1124ED5BFD4F50
:104D9000118A128A138A148A118E128E138E148E1F
:104DA000298D3A8D4B8D5C8D698D7A8D8B8D9C8D87
:104DB0000E9499377B018C0189E22F8D38A1829F57
:104DC000F001839FF00D1124ED5BFD4FC701D80169
:104DD000858F968FA78FB0A3A18CB28CC38C848C47
:104DE00060903B0270903C0290903D02D0903E0259
:104DF0009301492D5D2DB701C8010E94373587FF0A
:104E000003C03701902ED12E9301492D5D2DB501A0
:104E10008C2D982D0E94373587FD03C05301C92C76
:104E20008D2C89E24F8D58A1849FF001859FF00D54
:104E30001124ED5BFD4FC501AC2DB82D858B968BF4
:104E4000A78BB08F8CE0FE013196AFE2B2E001900B
:104E50000D928A95E1F7C701D80180933B029093A8
:104E60003C02A0933D02B0933E028CE0FE013D96D1
:104E7000A3E2B2E001900D928A95E1F780914002A1
:104E8000809341028F5F823109F480E08093400279
:104E9000E2960FB6F894DEBF0FBECDBFDF91CF9183
:104EA0001F910F91FF90EF90DF90CF90BF90AF9048
:104EB0009F908F907F906F905F904F903F902F903A
:104EC0000C943F2339E9398F46E74A8F56E95B8FC7
:104ED0008EE78C8F9BCE2FEE3FEF4FE75FE3C7014E
:104EE000B6010E94593718165CF489E24F8D58A11B
:104EF000849FF001859FF00D1124ED5BFD4F4CCF99
:104F00002FEE3FEF4FE75FEBC701B6010E94593725
:104F1000181644F08FEEC82EDD24DA948FE7E82EC1
:104F20008FEBF82EA701960160E070E080E89FE328
:104F30000E94413420E030E040E05FE30E94993776
:104F40000E9438386B017C0189E22F8D38A1829F45
:104F5000F001839FF00D1124ED5BFD4F2091B3060E
:104F60003091B4064091B5065091B60661A172A188
:104F700083A194A10E949937A70196010E949937B5
:104F80004B015C01A701960160E070E080E89FE3BF
:104F90000E9441349B01AC01C501B4010E9441351E
:104FA0006B017C0120E030E0A9010E94373587FFCA
:104FB00003C0C12CD12C760189E24F8D58A1849F6A
:104FC000F001859FF00D1124ED5BFD4FC18ED28E57
:104FD000E38EF48EE5CEE2960FB6F894DEBF0FBEF8
:104FE000CDBFDF91CF911F910F91FF90EF90DF9098
:104FF000CF90BF90AF909F908F907F906F905F9079
:105000004F903F902F900895E3E2F2E0A5E2B5E0E3
:1050100014964D915D916D917C91179740835183CA
:105020006283738318964D915D916D917C911B976E
:1050300044835583668377831C968D919D910D9053
:10504000BC91A02D80879187A287B3870895809116
:10505000410290914202891710F0891B08958E5EDB
:10506000FCCF0E9411198091420280933F020C9460
:105070003F234F925F926F927F92AF92BF92CF92F7
:10508000DF92EF92FF920F931F93CF93DF936C0108
:10509000FB015A01A081A80FB92FB11D8C91ED0120
:1050A0008D3249F5229611968C9101E0512C612C9C
:1050B00010E020E030E0A9017E0190ED792E780E1D
:1050C00089E0871528F16394A8E0A615E8F051104F
:1050D0001150A5E0B0E00E94D6389B01AC01220F30
:1050E000331F441F551F270D311D411D511D219692
:1050F000D7018C91E1CF8B3219F0219600E0D6CF09
:10510000229611968C91FACF5110F1CF1F5FEFCFFD
:10511000BEEF7B1205C0511003C055245394E7CF56
:10512000662009F17F01CA01B9010E94E9352B010E
:105130003C0120E030E0A9010E94373581112EC0EA
:10514000002309F448C077FA709477F87094F50159
:105150004082518262827382CC19DD09C150F7010D
:10516000C08366246394862DDF91CF911F910F91A8
:10517000FF90EF90DF90CF90BF90AF907F906F90B7
:105180005F904F9008952AE037ED43E25CE3C3015E
:10519000B2010E9499372B013C011E5F1F3F9CF317
:1051A0001F3F59F42DEC3CEC4CEC5DE3C301B20124
:1051B0000E9499372B013C01C3CF112309F220E053
:1051C00030E040E251E4C301B2010E9499372B0163
:1051D0003C011150F2CFD5014D925D926D927C92BF
:1051E0001397BACF019708F40895EFE9FFE03197DC
:1051F000F1F700C00000F6CF8F929F92AF92BF925E
:10520000CF92DF92EF92FF9269017A019B01AC018C
:105210000E9499374B015C01A7019601C701B601B5
:105220000E9499379B01AC01C501B4010E94423430
:10523000FF90EF90DF90CF90BF90AF909F908F90B6
:105240000C943838EBE6F0E08081897E8083E8E6D4
:10525000F0E080818E7F8083089584B1897E84B957
:1052600085B1866185B98091BB0683FF0BC08091B3
:105270006B00866180936B008091680081608093F1
:10528000680008950C942229EF92FF920F931F93C8
:10529000CF93DF93C3B18091BB0686FF22C0C67156
:1052A000D0E0B9F010E000E0D0E0EE24E394F12C7F
:1052B000802F0E9435238C2339F0C701002E01C0B6
:1052C000880F0A94EAF7D82B0F5F1F4F03301105A0
:1052D00079F78D2FDF91CF911F910F91FF90EF9074
:1052E0000895C095DCCF1F920F920FB60F92112434
:1052F0002F933F934F935F936F937F938F939F93DE
:10530000AF93BF93EF93FF9380912605813071F0A7
:105310008091450581110AC00E942D089FB7F8941D
:10532000809145058360809345059FBFFF91EF9174
:10533000BF91AF919F918F917F916F915F914F91AD
:105340003F912F910F900FBE0F901F9018952F92A5
:105350003F924F925F926F927F928F929F92AF9205
:10536000BF92CF92DF92EF92FF920F931F93CF9352
:10537000DF93CDB7DEB767970FB6F894DEBF0FBEE9
:10538000CDBF909125059111F1C0782E2EE736E022
:10539000398B288B5901CE010D964C0110E000E0AD
:1053A000C12CD12C7601A72DB0E0BB8BAA8B802F0E
:1053B0000E942123F40181934F018A899B89002E49
:1053C00002C0959587950A94E2F780FF1BC020E004
:1053D00030E040EC5FEBD50194966D917D918D911D
:1053E0009C9197970E949937362E472E582E692EFA
:1053F000A70196010E94373587FD04C0C32CD42C29
:10540000E52CF62C0F5F1F4FB4E0AB0EB11C033040
:10541000110569F68090C1069090C206A090C3065F
:10542000B090C40684E0682E01E04424439469E20D
:1054300075E0CE0101960E9426348091BC06E82FCB
:10544000F0E0FF8BEE8BFE01319625E235E03D8BDF
:105450002C8B1901512C10E030E020E0B701A6019F
:1054600070588A899B89022E02C0959587950A9467
:10547000E2F780FF27C05394D10114961D921D922C
:105480001D921C9217978E899F89022E02C09595B6
:1054900087950A94E2F780FF07C0002339F0408324
:1054A00051836283738306C00023C9F3C082D18213
:1054B000E282F382ADE0B0E0AC0FBD1FA20FB31FDC
:1054C0008C91182B2F5F3F4F3496B4E02B0E311C7C
:1054D0002330310531F6652D70E090E080E00E94C8
:1054E000E9350E943838A50194010E9499376B0173
:1054F0007C01109342050E94042820E0B701A60118
:10550000CE0101960E94DE240E9433190E941A16D1
:105510000023E9F00E944429FE013D9630E020E09E
:1055200090E06191462F412359F0AC01022E02C058
:10553000559547950A94E2F740FF02C060951623FF
:105540002F5F3F4F2330310561F7109342050E94D2
:10555000331980914305847309F4ACC080914305ED
:105560008073E9F00E942D080E94641467960FB6BC
:10557000F894DEBF0FBECDBFDF91CF911F910F9189
:10558000FF90EF90DF90CF90BF90AF909F908F9063
:105590007F906F905F904F903F902F9008950111F2
:1055A000A4C00E9444298721E9F69FB7F89480910E
:1055B00043058B7F809343059FBF0E94C3180E94C1
:1055C00087248091C5069091C6060E94F228042582
:1055D00009F475C020E030E040EA50E46091C7066D
:1055E0007091C8068091C9069091CA060E949937A9
:1055F0006B017C018090BD069090BE06A090BF0616
:10560000B090C0066A94611012CF2090BC06312C75
:10561000C090C706D090C806E090C906F090CA06B0
:105620002601370177FA709477F8709410E000E063
:105630008A899B89002E02C0959587950A94E2F786
:1056400080FF25C0E889F98980809180A280B3809D
:10565000C101002E02C0959587950A94E2F780FF5C
:105660003FC024A135A146A157A1C701B6010E94A0
:105670004234A50194010E9499370E946637AC8993
:10568000BD8914966D937D938D939C9317970F5FAF
:105690001F4FEC89FD893496FD8BEC8B2889398965
:1056A0002C5F3F4F398B288B0330110509F60E9480
:1056B00004285CCF812F8C7109F02ACF7ECFC09057
:1056C000C706D090C806E090C906F090CA06809040
:1056D000C1069090C206A090C306B090C40692CFB7
:1056E000A5019401C301B201C6CF8091430582FF99
:1056F0005CCF38CF8F929F92AF92BF92CF92DF92C2
:10570000EF92FF921F93CF93DF9310912805EC0146
:105710008EE7E82E86E0F82E6E018CE0C80ED11CD4
:1057200089909990A990B99020E030E0A901C50135
:10573000B4010E9459371816E4F1F70124A135A1EC
:1057400046A157A1C501B4010E94373587FD31C07C
:10575000112389F11093280580912605883091F452
:105760009FB7F894809143058860809343059FBF5D
:105770000E94641480912505811126C08091260520
:105780008111F6CF0E942D089FB7F89480914505AE
:105790008560809345059FBFDF91CF911F91FF905A
:1057A000EF90DF90CF90BF90AF909F908F900C9430
:1057B000641411E0CFCFF4E0EF0EF11CCC15DD0541
:1057C00009F0AECF10922805DF91CF911F91FF9085
:1057D000EF90DF90CF90BF90AF909F908F90089503
:1057E000CF93DF93EC018991811103C0DF91CF91B9
:1057F00008950E94A613F7CFCF93DF93EC01FE012B
:1058000084912196811103C0DF91CF9108950E9468
:10581000A613F5CFCF92DF92EF92FF920F931F93D3
:10582000CF93DF93CDB7DEB7262FCDB6DEB6042FEC
:1058300010E06DB77EB7601B710B0FB6F8947EBF9A
:105840000FBE6DBFEDB7FEB731967F019E2F9E193B
:10585000941798F00E0D1F1D0E151F0599F40FB625
:10586000F894DEBE0FBECDBEDF91CF911F910F9198
:10587000FF90EF90DF90CF900895622F0E94A238A2
:105880009193E4CFF80182918F01805D0E94A6136D
:10589000E3CF48E062E00C940A2C41E08A3020F02B
:1058A00043E0843608F442E06AE00C940A2C8F92BC
:1058B0009F92AF92BF92CF92DF92EF92FF920F939F
:1058C0001F93CF93DF93CDB7DEB72A970FB6F89427
:1058D000DEBF0FBECDBF6B017C01142F20E030E096
:1058E000A9010E94373587FF07C08DE20E94A613E9
:1058F000F7FAF094F7F8F094012F023008F054C052
:1059000010FF0AC020E030E040E251E4C701B601D8
:105910000E9499376B017C0120E030E040E05FE3BA
:10592000C701B6010E9442340E94B3359E012F5F29
:105930003F4F7901F901E10FF11D2EE2208300E0D4
:105940002AE0822E912CA12CB12C611571058105C4
:105950009105B1F5F701E00FF11D80E3011708F49F
:1059600040C0011308C0E1E0E00FEE0DFF2DF11D76
:105970000E5F80E380830E0D1F2D111DE016F106D2
:1059800099F52A960FB6F894DEBF0FBECDBFDF9112
:10599000CF911F910F91FF90EF90DF90CF90BF902C
:1059A000AF909F908F90089520E030E048EC52E453
:1059B000C701B6010E9499376B017C0102509DCF4F
:1059C000011301C00F5F6701C00ED11CA501940136
:1059D0000E94AE38605DF6016083B901CA010F5FB5
:1059E000B4CF0F5F8193BACFF80182918F010E94EB
:1059F000A613C4CF2091BB0643E020FF07C02BE8CD
:105A000032E441E25DE30E94993744E00C94572C64
:105A10002091BB0640E020FF07C02BE832E441E2C2
:105A20005DE30E94993741E00C94572C43E00C94BD
:105A3000572C3D98459A08951092CB069091BB063D
:105A400097FD03C090E29093CB06882331F08091BC
:105A5000CB0690E289278093CB06089586B18072A9
:105A60009091CB0689270895809144058130A1F457
:105A70000E942E2D882381F0109244058CE0E9E2EB
:105A8000F5E0A5E3B5E001900D928A95E1F78091EC
:105A900043058064809343050895CF93C82F80E821
:105AA00097E00E94FC2BEFEFEC0FE63108F04BC0C3
:105AB000F0E0E35AF24D0C94D038732D7C2D7F2DFD
:105AC000822D852D882D8B2D8E2D912D942D972D0A
:105AD000A32DA32DA32DA32DA32DA32DA32DA32D46
